:0C09B10048554F4E4700484F414E47004C
:10085C001208007B487D047F011209787F69120918
:10086C00A17F011209017BFF7A0979B17D047F0216
:0E087C001209417BFF7A0979B712092180FE2B
:1008E100E4FDFCC3ED9FEC9E5015E4FBFA0BBB004D
:0F08F100010AEB647B4A70F50DBD00010C80E439
:0109000022D4
:10098F00EF3392A7EFA2E692A6A2E592A5A2E49278
:02099F00A42290
:0709600012098FD2A1C2A110
:10096700EFA2E392A7A2E292A6A2E192A51392A414
:01097700225D
:0709C900AE071FEE70FA22D9
:10080000C2A0C2A17F147E001208E17F0312096713
:10081000D2A1C2A17F057E001208E17F0312096701
:10082000D2A1C2A17F641209C97F03120967D2A1B4
:10083000C2A17F017E001208E17F02120967D2A1E6
:10084000C2A11F7E001208E17F281209017F0C124D
:0C08500009017F011209017F0602090165
:10090100AE07C2A0120960D2A1C2A1EF24FE60030A
:100911000470077F027E000208E17F251209C922C7
:1009A100AE07D2A0120960D2A1C2A17F290209C952
:020978008B08EA
:10097A00BF01047F8080027FC0ED142FFF1209019E
:05098A00AF080209A105
:060921008B0B8A0C890D0E
:10092700E4FDAB0BAA0CA90D8D8275830012088A12
:09093700FF60061209A10D80E920
:010940002294
:060941008B088A09890AF7
:10094700BF01047F8080027FC0ED142FFF120901D1
:09095700AB08AA09A90A02092152
:0608B7008B0E8A0F891070
:1008BD00EF75F008A42440FF120901E4FDAB0EAA68
:1008CD000FA9108D8275830012088AFF1209A10DE0
:0308DD00BD08EA69
:0108E00022F5
:030000000209BD35
:0C09BD00787FE4F6D8FD75811002085C1C
:10088A00BB010CE58229F582E5833AF583E0225023
:10089A0006E92582F8E622BBFE06E92582F8E2226D
:0D08AA00E58229F582E5833AF583E4932287
:00000001FF
