:03000000020800F3
:0C080000787FE4F6D8FD75815A020847A5
:080AAA007FBFDFEFF7FBFDFE4B
:060AB2000149000152029F
:100A7A00E4FDFCC3ED9FEC9E5015E4FBFA0BBB00B2
:0F0A8A00010AEB64794A70F50DBD00010C80E4A0
:010A9900223A
:100A5200C2B6C2B5E4FEEF5480C41313135401248A
:100A6200FF92B4EF25E0FFD2B60000C2B60EBE0878
:070A7200E5D2B50000C2B59A
:010A7900225A
:0609BC008B538A5489559B
:1009C200E4F556E556900AAA93FF120A52AB53AACF
:1009D20054A955855682758300120A25FF120A52C0
:1009E2007F647E00120A7A0556E556C3940840D306
:0109F20022E2
:0F0A9A007F407808E4F608DFFCE4F508754805AE
:010AA900222A
:10088C00AF52EFD39400400F74072FF8E6FE7408B4
:10089C002FF8A6061F80EBE549700FE508C39408F6
:1008AC0050047438803974F88035E549B4010FE58B
:1008BC0008C39438400474C8800274088021E54948
:1008CC00B4020DE508540770047407801215082251
:1008DC00E549B40311E5085407FFBF070774F92570
:0608EC0008F508220508D2
:0108F20022E3
:1009F3007F01EFC39552501374082FF8E6B508082A
:100A0300755201E4F50880110F80E7E508B5481138
:100A1300E552C3944050020552E5482411543FF572
:010A2300488A
:010A240022AF
:100958007E08784AE4F608DEFCE4FEEEC3955250C1
:100968002C74082EF8E6FD131313541FF55AED5492
:1009780007FF744A255AF8C000E6FDA80774010865
:100988008002C333D8FC4DD000F60E80CEE5481364
:100998001313541FF55AE5485407FF744A255AF8AB
:1009A800C000E6FEA8077401088002C333D8FC4ED5
:0309B800D000F676
:0109BB002219
:1008F300120A9A20B003E4F54920B1037549012097
:10090300B20375490220B30375490312088C120917
:10091300F3120958E4F558F559E4F9E4FF120A52C1
:10092300E9900AAA93F580744A29F8E6FF120A525D
:100933007F027E00120A7A09B908E00559E5597069
:10094300020558C39432E558940040CD7F017E00E0
:05095300120A7A809EEB
:10080C000208F3E493A3F8E493A34003F68001F207
:10081C0008DFF48029E493A3F85407240CC8C333ED
:10082C00C4540F4420C8834004F456800146F6DFBC
:10083C00E4800B0102040810204080900AB2E47E90
:10084C00019360BCA3FF543F30E509541FFEE493B1
:10085C00A360010ECF54C025E060A840B8E493A378
:10086C00FAE493A3F8E493A3C8C582C8CAC583CAA3
:10087C00F0A3C8C582C8CAC583CADFE9DEE780BE5B
:010AB800003D
:100A2500BB010CE58229F582E5833AF583E0225086
:100A350006E92582F8E622BBFE06E92582F8E222D0
:0D0A4500E58229F582E5833AF583E49322EA
:00000001FF
