:03000000020003F8
:0C000300787FE4F6D8FD75815A02004AAF
:080284007FBFDFEFF7FBFDFE79
:06028C00014900015201CE
:10025400E4FDFCC3ED9FEC9E5015E4FBFA0BBB00E0
:0F026400010AEB64794A70F50DBD00010C80E4CE
:010273002268
:10022C00C2B6C2B5E4FEEF5480C4131313540124B8
:10023C00FF92B4EF25E0FFD2B60000C2B60EBE08A6
:07024C00E5D2B50000C2B5C8
:010253002288
:06019C008B538A548955C3
:1001A200E4F556E55690028493FF12022CAB53AA53
:1001B20054A9558556827583001201D3FF12022C71
:1001C2007F647E001202540556E556C3940840D35C
:0101D200220A
:0F0274007F407808E4F608DFFCE4F50875480AD7
:010283002258
:10015800AF52EFD39400400F74072FF8E6FE7408EF
:100168002FF8A6061F80EBE5497006E508243880BD
:100178001EE549B40106E50824088013E549B402E0
:1001880006E508243F8008E549B40307E508045458
:030198003FF50828
:01019B002241
:100200007E01EEC39552501474082EF8E6B5080925
:10021000755201E4F5081202740E80E6E508B5484F
:0B0220000A0552E5482411543FF54840
:01022B0022B0
:1000F4007E08784AE4F608DEFCE4FEEEC39552502E
:100104002C74082EF8E6FD131313541FF55AED54FE
:1001140007FF744A255AF8C000E6FDA807740108D1
:100124008002C333D8FC4DD000F60E80CEE54813D0
:100134001313541FF55AE5485407FF744A255AF817
:10014400C000E6FEA8077401088002C333D8FC4E41
:03015400D000F6E2
:010157002285
:10008F0012027420B203E4F54920B303754901202D
:10009F00B10375490220B0037549031201581202CA
:1000AF00001200F4E4F558F559E4F9E4FF12022CBC
:1000BF00E990028493F580744A29F8E6FF12022C26
:1000CF007F027E0012025409B908E00559E5597004
:1000DF00020558C39432E558940040CD7F017E004D
:0500EF00120254809E86
:10000F0002008FE493A3F8E493A34003F68001F278
:10001F0008DFF48029E493A3F85407240CC8C333F2
:10002F00C4540F4420C8834004F456800146F6DFC1
:10003F00E4800B010204081020408090028CE47EC3
:10004F00019360BCA3FF543F30E509541FFEE493B6
:10005F00A360010ECF54C025E060A840B8E493A37D
:10006F00FAE493A3F8E493A3C8C582C8CAC583CAA8
:10007F00F0A3C8C582C8CAC583CADFE9DEE780BE60
:01029200006B
:1001D300BB010CE58229F582E5833AF583E02250E1
:1001E30006E92582F8E622BBFE06E92582F8E2222B
:0D01F300E58229F582E5833AF583E4932245
:00000001FF
