:100A7C00120EB0120E65120C05751400751500756A
:100A8C00160975170075180075190A751A00751B6B
:100A9C0000751C0B7B007A007908120800E51065C4
:100AAC000A60D6850A10E50875F00A842430FB7DAF
:100ABC00057F01120E17E50875F00A84E5F0243065
:100ACC00FF120E557F3A120E55E50975F00A842473
:100ADC0030FF120E55E50975F00A84E5F02430FF5D
:100AEC00120E557F3A120E55E50A75F00A84243021
:100AFC00FF120E55E50A75F00A84E5F02430FF125A
:050B0C000E55020A85F0
:100E4300EF3392A7EFA2E692A6A2E592A5A2E492BF
:020E5300A422D7
:070DFF00120E43D2A1C2A1B4
:100E0600EFA2E392A7A2E292A6A2E192A51392A470
:010E160022B9
:070E8D00AE071FEE70FA2210
:100C0500C2A0C2A17F147E00120DA77F03120E069B
:100C1500D2A1C2A17F057E00120DA77F03120E0689
:100C2500D2A1C2A17F64120E8D7F03120E06D2A13E
:100C3500C2A17F017E00120DA77F02120E06D2A16E
:100C4500C2A11F7E00120DA77F28120D677F0C120F
:0C0C55000D677F01120D677F06020D671E
:100D6700AE07C2A0120DFFD2A1C2A1EF24FE6003FD
:100D77000470077F027E00020DA77F25120E8D22C9
:100E5500AE07D2A0120DFFD2A1C2A17F29020E8D2D
:020E17008B113D
:100E1900BF01047F8080027FC0ED142FFF120D6790
:050E2900AF11020E559F
:060D87008B428A438944FF
:100D8D00E4FDAB42AA43A9448D827583001209C6C6
:090D9D00FF6006120E550D80E9FD
:010DA600222A
:060DC7008B458A468947B6
:100DCD00BF01047F8080027FC0ED142FFF120D67DD
:090DDD00AB45AA46A947020D87A7
:060CF8008B488A49894A7D
:100CFE00EF75F008A42440FF120D67E4FDAB48AA7F
:100D0E0049A94A8D827583001209C6FF120E550D30
:030D1E00BD08EA23
:010D210022AF
:100DA700E4FDFCC3ED9FEC9E5015E4FBFA0BBB0082
:0F0DB700010AEB647B4A70F50DBD00010C80E46E
:010DC600220A
:050EB000D290D2912256
:070E9400D290C291C290222E
:0C0E7400D291D290A2919201C290A201F2
:010E8000224F
:100E2E00E4FEEF339291D290C290EF25E0FF0EBE1A
:050E3E0008F0020E7433
:070E9B00C291D290C2902227
:070EA200D291D290C2902210
:100D4600E4FFFED291D290EF25E0FF3091034307F6
:100D560001C2900EBE08EC300103020E9B120EA2D9
:010D6600226A
:070EA900C291D290D2912208
:0F0E6500E4FF120D22AD0753057FE4FF020DE6F7
:100DE6008F118D12120E947FD0120E2EAF11120E8D
:090DF6002EAF12120E2E020EA9FE
:020D22008F112F
:100D2400120E947FD0120E2EAF11120E2E120E94AC
:100D34007FD1120E2EC201120D468F12120EA9AFD0
:010D4400129C
:010D4500228B
:060800008B118A1289131E
:10080600120E947FD0120E2EE4FF120E2E120E94AC
:100816007FD1120E2ED201120D468F1FD201120D5C
:10082600468F1EC201120D468F1D120EA9531F7F41
:10083600E51FC4540F75F00AA4FFE51F540F2FAB34
:1008460017AA18A9191209F3531E7FE51EC4540FDF
:1008560075F00AA4FFE51E540F2FAB14AA15A916AE
:100866001209F3E51D30E633AB1AAA1BA91C740C5A
:100876001209F3E51D30E504D2008002C200531DC3
:100886001FE51DC4540F75F00AA4FFE51D540F2F74
:10089600AB11AA12A9131209F3803AAB1AAA1BA923
:1008A6001C74181209F3531D3FE51DC4540F75F04F
:1008B6000AA4FFE51D540F2FAB11AA12A9131209A2
:1008C600F3AB11AA12A9131209ADC3940C5004C2BA
:0708D600008002D200A20025
:0108DD0022F8
:100B11008F398C3A8D3B8B3CE53C75F00A84C4548B
:100B2100F0FFE53C75F00A84E5F04FF53CAE3AAFD5
:100B31003B7C007D0A120A27EFC4F8540FC868FBFA
:100B4100EEC454F048FAAE3AAF3B7C007D0A120A7B
:100B510027EC4AF53AED4BF53BE53975F00A84C4CB
:100B610054F0FFE53975F00A84E5F04FF539E53DBC
:100B7100B40C09433940300203433920120E947FEB
:100B8100D0120E2EE4FF120E2EAF3C120E2EAF3BF2
:0B0B9100120E2EAF39120E2E020EA91C
:1008DE008B218A228923120E947FD0120E2E7F0333
:1008EE00120E2E120E947FD1120E2ED201120D4622
:1008FE00AB21AA22A923EF1209F3D201120D46ABA6
:10090E0024AA25A926EF1209F3D201120D46AB2710
:10091E00AA28A929EF1209F3C201120D46AB2AAA81
:10092E002BA92CEF1209F3120EA9AB21AA22A9238F
:10093E001209AD54071209F3AB24AA25A9261209F0
:10094E00AD543F1209F3AB24AA25A9261209ADFF17
:10095E00C4540F75F00AA4FEEF540F2E1209F3AB18
:10096E0027AA28A9291209AD541F1209F3AB27AAE9
:10097E0028A9291209ADFFC4540F75F00AA4FEEF81
:10098E00540F2E1209F3AB2AAA2BA92C1209ADFF74
:0F099E00C4540F75F00AA4FEEF540F2E0209F394
:100B9C008F3E8D3F8B40E53F75F00A84C454F0FFC7
:100BAC00E53F75F00A84E5F04FF53FE54075F00A36
:100BBC0084C454F0FFE54075F00A84E5F04FF5402D
:100BCC00E54175F00A84C454F0FFE54175F00A84E0
:100BDC00E5F04FF541120E947FD0120E2E7F0312CA
:100BEC000E2EAF3E120E2EAF3F120E2EAF40120E37
:090BFC002EAF41120E2E020EA9CB
:080CBC008F2D8B2E8A2F893049
:100CC400E4F532120E947FD0120E2EAF2D120E2E9A
:100CD400E4F532E532C395315017AB2EAA2FA93073
:100CE4008532827583001209C6FF120E2E053280EA
:040CF400E2020EA961
:080C61008F338B348A3589368C
:100C6900120E947FD0120E2EAF33120E2E120E9446
:100C79007FD1120E2EE4F538E53714FFE538C39F0E
:100C89005019D201120D46AB34AA35A936853882DE
:100C9900758300EF120A05053880DDC201120D4681
:100CA900AB34AA35A936853882758300EF120A0557
:030CB900020EA97F
:03000000020E816C
:0C0E8100787FE4F6D8FD75814A020A7CF7
:1009AD00BB010689828A83E0225002E722BBFE0248
:0909BD00E32289828A83E493227B
:1009C600BB010CE58229F582E5833AF583E02250E6
:1009D60006E92582F8E622BBFE06E92582F8E22230
:0D09E600E58229F582E5833AF583E493224A
:1009F300BB010689828A83F0225002F722BBFE01E3
:020A0300F322DC
:100A0500F8BB010DE58229F582E5833AF583E8F027
:100A1500225006E92582C8F622BBFE05E92582C8D3
:020A2500F222BB
:100A2700BC000BBE0029EF8DF084FFADF022E4CCB3
:100A3700F875F008EF2FFFEE33FEEC33FCEE9DEC7C
:100A4700984005FCEE9DFE0FD5F0E9E4CEFD22EDC2
:100A5700F8F5F0EE8420D21CFEADF075F008EF2F0C
:100A6700FFED33FD4007985006D5F0F222C398FDFD
:050A77000FD5F0EA229A
:00000001FF
