:0A089100C0F9A4B0999282F880909B
:1008000075081E75081EE50875F00A84F509E508E7
:1008100075F00A8485F00AE508700375081FE4F591
:100820000BF50CE50990089193F5A0D2907F327EEC
:1008300000120865C290E50A90089193F5A0D29144
:100840007F327E00120865C291050CE50C7002052E
:100850000BC39405E50B940040C91508E508C39443
:050860000050A3809B85
:10086500E4FDFCC3ED9FEC9E5015E4FBFA0BBB00C9
:0F087500010AEB647B4A70F50DBD00010C80E4B5
:010884002251
:030000000208856E
:0C088500787FE4F6D8FD75810C020800B5
:00000001FF
