:0A097100C0F9A4B0999282F88090BA
:080800008E0C8F0DAB05AA045C
:100808007C007D0AAF03AE021208A88D0F7C007D24
:100818000AAF03AE021208A8AA06AB077C007D0A3D
:100828001208A88D10AE0CAF0D7C007D0A1208A826
:100838008D11AE0CAF0D7C007D0A1208A88E0C8FAE
:100848000D7C007D0A1208A88D12E4F50E750E3293
:10085800E51290097193F580C2A07F017E0012090C
:1008680045D2A0E51190097193F580C2A17F017E60
:1008780000120945D2A1E51090097193F580C2A232
:100888007F017E00120945D2A2E50F90097193F508
:1008980080C2A37F017E00120945D2A3050E80AD58
:1008FD0075080075091E750A00750B0AAD0BAC0A5B
:10090D00AF09AE08120800E50B450A701AF50A7515
:10091D000B0AD3E5099400E50894004012E509158A
:10092D0009700C15088008E50B150B7002150A7F70
:08093D00647E0012094580C42C
:10094500E4FDFCC3ED9FEC9E5015E4FBFA0BBB00E8
:0F095500010AEB647B4A70F50DBD00010C80E4D4
:010964002270
:030000000209658D
:0C096500787FE4F6D8FD7581120208FDD1
:1008A800BC000BBE0029EF8DF084FFADF022E4CC34
:1008B800F875F008EF2FFFEE33FEEC33FCEE9DECFD
:1008C800984005FCEE9DFE0FD5F0E9E4CEFD22ED43
:1008D800F8F5F0EE8420D21CFEADF075F008EF2F8D
:1008E800FFED33FD4007985006D5F0F222C398FD7E
:0508F8000FD5F0EA221B
:00000001FF
