:0A0A6600C0F9A4B0999282F88090C4
:04080000AB07AA0692
:100804007C037DE81209D68F0F7C037DE8AF03AE2D
:10081400021209D67E007F64CFCDCFCECCCE120992
:10082400D68F107C037DE8AF03AE021209D67E009A
:100834007F64CFCDCFCECCCE1209D67E007F0ACF37
:10084400CDCFCECCCE1209D68F11AE02AF037C032E
:100854007DE81209D67E007F64CFCDCFCECCCE12F8
:1008640009D67E007F0ACFCDCFCECCCE1209D68D4D
:1008740012E4F513F514E50F900A6693F580D2A0FF
:100884007F0A7E00120A2BC2A0E510900A6693F537
:1008940080D2A17F0A7E00120A2BC2A1E511900A20
:1008A4006693F580D2A27F0A7E00120A2BC2A2E5CB
:1008B40012900A6693F580D2A37F0A7E00120A2B57
:1008C400C2A30514E51470020513C394FAE5139446
:0308D4000040A33E
:0108D70022FE
:0208D8008F0887
:1008DA00750D008F0EC3E50D94004070AE0DAF0E7E
:1008EA007C007D0A1209D68F09AE0DAF0E7C007D01
:1008FA000A1209D68D0AE4F50BF50CE509900A6689
:10090A0093F580D2A07F017E00120A2BC2A0E50ACD
:10091A00900A6693F580D2A17F017E00120A2BC24B
:10092A00A1050CE50C7002050BC39464E50B940059
:10093A0040C9E50E450D700AE5082401F50EE433B9
:0C094A00F50DE50E150E708D150D808961
:01095600227E
:020957008F0807
:10095900750D008F0EC3E50D94004070AE0DAF0EFE
:100969007C007D0A1209D68F09AE0DAF0E7C007D81
:100979000A1209D68D0AE4F50BF50CE509900A6609
:1009890093F580D2A27F017E00120A2BC2A2E50A4A
:10099900900A6693F580D2A37F017E00120A2BC2CA
:1009A900A3050CE50C7002050BC39464E50B9400D8
:1009B90040C9E50E450D700AE5082401F50EE4333A
:0C09C900F50DE50E150E708D150D8089E2
:0109D50022FF
:0F0A4B00E4F5807F1E1208D87F1912095780F436
:100A2B00E4FDFCC3ED9FEC9E5015E4FBFA0BBB0001
:0F0A3B00010AEB647B4A70F50DBD00010C80E4ED
:010A4A002289
:03000000020A5A97
:0C0A5A00787FE4F6D8FD758114020A4B89
:1009D600BC000BBE0029EF8DF084FFADF022E4CC05
:1009E600F875F008EF2FFFEE33FEEC33FCEE9DECCE
:1009F600984005FCEE9DFE0FD5F0E9E4CEFD22ED14
:100A0600F8F5F0EE8420D21CFEADF075F008EF2F5D
:100A1600FFED33FD4007985006D5F0F222C398FD4E
:050A26000FD5F0EA22EB
:00000001FF
