:10080000E4F5A0F508E5A025E04401F5A07FC87E49
:10081000001208580508E508C3940840E8E4F50804
:10082000E5A025E0F5A07FC87E001208580508E580
:0608300008C3940840EA31
:01083600229F
:10083700E4F50875A0557FC87E0012085875A0AA70
:100847007FC87E001208580508E508C3940A40E3EC
:01085700227E
:0808840012080012083780F889
:10085800E4FDFCC3ED9FEC9E5015E4FBFA0BBB00D6
:0F086800010AEB647B4A70F50DBD00010C80E4C2
:01087700225E
:030000000208787B
:0C087800787FE4F6D8FD75810802088442
:00000001FF
