:09090E0048554F4E4720445A00A1
:0F08E400C2A08FB0C2A1D2A17F027E0002087C09
:0F08F300D2A08FB0C2A1D2A17F027E0002087CEA
:060859008B0B8A0C890DD7
:10085F00E4F50EAB0BAA0CA90D850E827583001261
:0C086F000800FF60071208F3050E80E788
:01087B00225A
:10082D007F301208E47F057E0012087C7F301208AD
:10083D00E47F017E0012087C7F301208E47F3812BD
:0C084D0008E47F011208E47F0C0208E4BC
:0208BB008B0FA1
:1008BD00BF01047F8080027FC0EF2D14FF1208E47A
:0508CD00AF0F0208F36B
:06089C008B088A09890A9D
:1008A200BF01047F8080027FC0EF2D14FF1208E495
:0908B200AB08AA09A90A020859C1
:1008D20012082D7BFF7A09790E7D057F0212089C92
:0208E20080FE96
:10087C00E4FDFCC3ED9FEC9E5015E4FBFA0BBB00B2
:0F088C00010AEB647B4A70F50DBD00010C80E49E
:01089B00223A
:03000000020902F0
:0C090200787FE4F6D8FD75810F0208D262
:10080000BB010CE58229F582E5833AF583E02250AD
:1008100006E92582F8E622BBFE06E92582F8E222F7
:0D082000E58229F582E5833AF583E4932211
:00000001FF
