:0A08BE00C0F9A4B0999282F880906E
:10080000D280C281C282750814E50875F00A84900E
:1008100008BE93F5A0E50875F00A84E5F093F5B0FD
:100820007FE87E031208921508E508C3940050D9AA
:10083000C280D281C282750805E50875F00A8490ED
:1008400008BE93F5A0E50875F00A84E5F093F5B0CD
:100850007FE87E031208921508E508C3940050D97A
:10086000C280C281D282750819E508C39400409005
:10087000E50875F00A849008BE93F5A0E50875F0C8
:100880000A84E5F093F5B07FE87E0312089215081C
:0208900080D70F
:10089200E4FDFCC3ED9FEC9E5015E4FBFA0BBB009C
:0F08A200010AEB64644A70F50DBD00010C80E49F
:0108B1002224
:030000000208B241
:0C08B200787FE4F6D8FD7581080208008C
:00000001FF
