:0300000002089F54
:0C089F00787FE4F6D8FD75811B0208E6A6
:100A0200010800040D0000000004140000000004AE
:0B0A12000900000000011300011200A9
:1009840075A0FF120A4ED2AFAF1712092B8F08E5DC
:1009940008B40102C2A0E508B40202C2A1E508B489
:1009A4000302C2A2E508B40402D2A0E508B4050219
:1009B400D2A1E508B40602D2A220B202C2A420B198
:0509C400C7D2A480C3AE
:10092B00E4F51BEF1209DC095B85096AA50979ADB2
:10093B000974B5096FBD0965C70951CF0956E70998
:10094B0060EF0000097E751B01802B751B02802652
:10095B00751B038021751B04801C751B0580177587
:10096B001B068012751B07800D751B088008751BF5
:08097B00098003E4F51BAF1B2A
:010983002251
:03000B00020A1EC8
:100A1E00C0E0C0D0E513C3943250020513758CFCB0
:080A2E00758A18D0D0D0E03227
:03000300020800F0
:10080000C0E0C0D075D000C000C001C004C005C0A9
:1008100006C007851311751300758CFC758A1805C1
:1008200012E511C3943240117512FE751000750F58
:1008300000750E00750D008055C3E512648094802C
:100840004034E512648094A0502CE511C39402401A
:100850003DE47F01FEFDFC741F9512F9F81209C9F1
:10086000E5104FF510E50F4EF50FE50E4DF50EE5D1
:100870000D4CF50D8018C3E512648094A0400F85DF
:100880001017850F16850E15850D14751200D007EB
:0F089000D006D005D004D001D000D0D0D0E032B7
:100A4E00438901758CFC758A18D28CD2A9D288D2B2
:020A5E00A822CC
:100A3600EF24FE600B14600C2402700B63A00122ED
:080A460063A0022263A0042258
:1008AB00020984E493A3F8E493A34003F68001F2D6
:1008BB0008DFF48029E493A3F85407240CC8C3334E
:1008CB00C4540F4420C8834004F456800146F6DF1D
:1008DB00E4800B0102040810204080900A02E47EA1
:1008EB00019360BCA3FF543F30E509541FFEE49312
:1008FB00A360010ECF54C025E060A840B8E493A3D9
:10090B00FAE493A3F8E493A3C8C582C8CAC583CA03
:10091B00F0A3C8C582C8CAC583CADFE9DEE780BEBB
:010A1D0000D8
:1009C900E8600FEFC333FFEE33FEED33FDEC33FC8C
:0309D900D8F12230
:1009DC00D083D082F8E4937012740193700DA3A3AA
:1009EC0093F8740193F5828883E4737402936860BE
:0609FC00EFA3A3A380DFBE
:00000001FF
