:0A089F00C0F9A4B0999282F880908D
:10080000EF75F00A84F509EF75F00A8485F00AE4C3
:10081000F50BF50CE50990089F93F5A0D2907F01A8
:100820007E00120873C290E50A90089F93F5A0D24B
:10083000917F017E00120873C291050CE50C7002D5
:0B084000050BC39464E50B940040C955
:01084B00228A
:10084C00E4F58075081E75081EE508D3941E50F655
:10085C00AF081208007FE87E03120873E5087003E6
:07086C0075081E150880E26B
:10087300E4FDFCC3ED9FEC9E5015E4FBFA0BBB00BB
:0F088300010AEB647B4A70F50DBD00010C80E4A7
:010892002243
:0300000002089360
:0C089300787FE4F6D8FD75810C02084C5B
:00000001FF
