:10097B00121A0000000100030007000F001F003FC8
:10098B00007F00FF120800FF00FE00FC00F800F0E3
:08099B0000E000C00080000034
:0D094700F808E6F5907FFA7E007D007C0048
:100954008F318E308D2F8C2EE47B19FAF9F8120822
:100964008C8F318E308D2F8C2E782E74FF1208DDF3
:07097400EC4D4E4F70F32221
:1008FB00E4F590E4F52CF52DE52D25E0241A1209ED
:10090B0047052DE52D7002052CC39408E52C64805A
:10091B00948040E4752C00752D08D3E52D9400E5EB
:10092B002C6480948040CC7408952D25E02408120B
:0C093B000947E52D152D70E2152C80DE1B
:03000000020800F3
:0C080000787FE4F6D8FD758131020847CE
:10088C00E88FF0A4CC8BF0A42CFCE98EF0A42CFC0B
:10089C008AF0EDA42CFCEA8EF0A4CDA8F08BF0A489
:1008AC002DCC3825F0FDE98FF0A42CCD35F0FCEBE8
:1008BC008EF0A4FEA9F0EB8FF0A4CFC5F02ECD39AD
:0F08CC00FEE43CFCEAA42DCE35F0FDE43CFC221A
:1008DB007401FF3395E0FEFDFC080808E6CF2FF608
:1008EB0018E6CE3EF618E6CD3DF618E6CC3CF622E1
:10080C000208FBE493A3F8E493A34003F68001F2FF
:10081C0008DFF48029E493A3F85407240CC8C333ED
:10082C00C4540F4420C8834004F456800146F6DFBC
:10083C00E4800B010204081020408090097BE47EC8
:10084C00019360BCA3FF543F30E509541FFEE493B1
:10085C00A360010ECF54C025E060A840B8E493A378
:10086C00FAE493A3F8E493A3C8C582C8CAC583CAA3
:10087C00F0A3C8C582C8CAC583CADFE9DEE780BE5B
:0109A3000053
:00000001FF
